:02000002D0002C
:1040000000400D0080750D00000006000D00050148
:084010000401BD0B00000000DB
:04401800C8700D005F
:1040200009480A49884208B505D0094A824202D0A7
:10403000121A02F041FF0748074A0021121A02F043
:1040400049FF014808BD00BF90E40320E4740D005F
:1040500004E5032004E50320F0E7032070B5074ED4
:10406000074C01F07BFBA41BA4080025A54200D14E
:1040700070BD56F8043B98470135F7E7BC740D0056
:10408000E0740D0000F05ABA08B500F089FABDE8F6
:10409000084001F025BB00F0F1BF00F0EFBF00F0D9
:1040A000F5BF0078B0FA80F0400970470123037033
:1040B0007047000008B501F0F3FE0A4901F096F9D7
:1040C00001F0EEFE084901F091F901F0E9FE07491F
:1040D00001F08CF901F0E4FEBDE80840044901F06C
:1040E00098B900BFDC700D00EE700D0003710D007B
:1040F00006710D0073B5044601921D460E4602F08E
:1041000091F9214602F04CF802F08CF9036831462F
:104110009B68984702F086F902F04AF802F082F9AB
:104120002146019A02F039F8002402F07BF9036875
:104130001B699847661C40B102F074F903685B691B
:104140009847E4B228553446EFE702B070BD70B529
:10415000064614460D4602F065F9314602F020F895
:1041600002F060F9036829469B68984702F05AF903
:10417000036821469B68984702F054F9BDE87040F7
:1041800002F016B8000000002DE9F0472DED028B7B
:10419000974C8AB001F056FF03681B69984748B1F5
:1041A00001F050FF03685B699847C1B2204600F0F8
:1041B00015FDEFE78E4F01F073FE8E4901F029F9EE
:1041C0007B7813B94FF00008C5E097F80080B8F18C
:1041D000000FF7D0384600F03FFB51EC100B02F017
:1041E00009FE854C854E2060384600F059FB51ECA5
:1041F000100B02F0FFFD306001F052FE804901F02B
:10420000F5F801F04DFE94ED000A022101F0F2F9FB
:1042100001F046FE7B4901F0E9F801F041FE96ED20
:10422000000A022101F000FA206802F093FA024627
:104230000B463068CDE9022302F08CFADDE9022357
:10424000CDE90001704906A801F026F86F4B069AE7
:104250001B788DF800306E493C2304A801F0D6FB92
:10426000059D7DB16B68013B6B605BB92B6828468F
:104270009B689847AB68013BAB601BB92B6828462D
:10428000DB68984706A800F0A7FF6249DFF89CA109
:104290000B68DFF89C91002B03F00102B8BF52427B
:1042A000012A0D4603F1010338D122680B607B78A7
:1042B000CAF800203268C9F80020002B82D097F895
:1042C0000080B8F1000F3FF47DAF494800F0C4FA18
:1042D00051EC100B02F08EFD2060454800F0E0FA32
:1042E00051EC100B02F086FD30602E6807EE100ACC
:1042F00026B9494B22681A60484B1860484BD4EDE8
:10430000007A1A6896FBF2F302FB13634BBBCAED0B
:10431000007A89ED007A01362E6053E79AED007A33
:10432000D4ED007A96ED006A0B6037EE277AD9ED6E
:10433000007A3C4BF6EE006A27EE267A77EE867A14
:1043400083ED007A67EEA67A374B8AED007AC9EDE5
:10435000007AC3ED007A40460AB0BDEC028BBDE89E
:10436000F0875A1E06EE902A9AED006A2A4C2B4FCF
:10437000F8EEE66AE6EE867AB0EE676A07EE903A05
:10438000F8EEE77AC6EE278A99ED006ACAED008A50
:10439000A6EE867A87EE278AD4ED007A89ED008A28
:1043A00078EEE77AF0EEE77A17EE900A02F0D2F9AB
:1043B0000DA3D3E9002302F0B5FC80B9D7ED007A54
:1043C00078EE677AF0EEE77A17EE900A02F0C2F91B
:1043D00005A3D3E9002302F0A5FC00289BD0C4ED7F
:1043E000008A87ED008AB6E7F168E388B5F8E43E15
:1043F0002CE5032024710D0004E6032008E60320C9
:104400003D710D0048710D0056710D0010E503203F
:10441000FC700D001CE5032024E5032028E50320A3
:1044200090E4032008E503200CE5032014E50320B5
:1044300018E5032010B51424FFF7A6FE08B9013CC7
:10444000FAD110BDF0B585B06B460E223B21682035
:10445000FFF750FE9DF800309DF801209DF80210F6
:104460009DF804001F4E204C42EA03229DF80330C1
:1044700043EA01239DF8051041EA002130685242C9
:104480005B4212B21BB209B2354640B92280174ACC
:104490001380174B19800123336005B0F0BDB4F9C8
:1044A0000000101A0028B8BF40420A2811DC0F4F44
:1044B000B7F90000181A0028B8BF40420A2808DCE3
:1044C0000B4EB6F90000081A0028B8BF40420A286F
:1044D00003DD00232B600120DFE722803B80318059
:1044E0000020DAE720E503200CE603200EE6032097
:1044F00010E6032008B50021042001F060FF02202F
:1045000000F0F8FB0121042001F059FF142000F015
:10451000F1FB0021042001F052FF0121052001F0F0
:1045200067FF3A2390FBF3F0034B1B68C01A052882
:10453000D4BF0020012008BD98E4032007B501F096
:10454000AFFC4FF4165101F09FFC01F07BFD4FF4DE
:10455000165101F073FD01F065FF01F0EFFD062239
:104560001D216820FFF7F3FD18221C216820FFF7AA
:10457000EEFD0121042001F011FF0221052001F0D0
:104580000DFF0023CDE90033034904481A4600F02B
:1045900065FD03B05DF804FBB5400D00EE700D0045
:1045A00038B53F4C2368052B13D8DFE803F003131D
:1045B000223B586701F074FC3A4900F02AFFC820FA
:1045C00001F054F8384B1A681AB101222260002217
:1045D0001A6038BD01F064FC344900F01AFFC820AD
:1045E00001F044F8FFF72EFF0028F2D002232360E9
:1045F000EFE701F055FC2E4900F00BFFC82001F059
:1046000035F8FFF717FF38B1032323604FF4967096
:10461000BDE8384001F02AB8FFF76CFF0028D8D079
:104620000523E4E701F03CFC224D234900F0F1FEB4
:10463000C82001F01BF82B68012B0AD101F030FCD7
:104640001E4900F0E6FE00232B6004232360C820EF
:10465000DEE701F025FC1A4900F0DBFEF5E701F08A
:104660001FFC184900F0D5FEC82000F0FFFF01F044
:1046700017FCBDE83840144900F0CBBE01F010FC37
:10468000124900F0C6FEC82000F0F0FF01F008FC5F
:104690000F4900F0BEFE074B01221A60D5E700BFAC
:1046A00014E6032075710D0094E4032080710D0061
:1046B0008F710D0018E603209F710D00B1710D0080
:1046C000BE710D00CA710D00DC710D00EF710D009F
:1046D00002720D00024B034801221A7000F004B868
:1046E00010E503202CE5032000220221C0E930223E
:1046F000028082808260027302824261027682833B
:10470000026280F824200285C26280F8302002878D
:10471000C263A0F84820C264A0F858200266A0F83E
:1047200068200267A0F87820C0F88020A0F88820D0
:10473000C0F89020A0F89820C0F8A02080F8B91008
:10474000A0F8BA2080F8BC20C0E93222C0E93422A7
:10475000A0F8A82080F8AA207047A1F14103052BFA
:1047600002D8A1F137007047A1F16103052B94BF76
:10477000A1F15700A1F13000704738B50578044623
:104780002D2D08BF0134204602F084FB64235843DA
:10479000224614F8013BA3F130010929F8D92E2B48
:1047A0000BD15378303B092B07D80A2101FB0300BA
:1047B0009378303B092B98BFC0182D2D08BF40427D
:1047C00038BD000038B50D46044602F063FB642294
:1047D000134BB0FBF2F102FB11004343298020464A
:1047E0000278A2F13004092C014600F10100F7D94A
:1047F0002E2A0BD10A480A2411F8012F303A092A2F
:1048000004D8B0FBF4F000FB0233F5E703EB8303BD
:1048100001330322B3FBF2F36B6000232B7238BD2C
:104820008096980010B50346044653F81C2F42604A
:104830005A6882601B7A0373034653F8282F02617B
:104840005A6842611B7A037600F05CFA40F2011369
:104850006063238010BD0000D0B500230446437080
:10486000806801F055FF0CA3D3E9002302F0F4F8AF
:104870000646A0880F4601F05BFF0B46024639460C
:10488000304601F009FE237B13B101F100431946C4
:1048900041EC100BD0BD00BF0000000065CDCD4144
:1048A000D0B5002304464370406901F031FF0CA3EA
:1048B000D3E9002302F0D0F80646208A0F4601F023
:1048C00037FF0B4602463946304601F0E5FD237EB0
:1048D00013B101F10043194641EC100BD0BD00BFEC
:1048E0000000000065CDCD4110B5836843600446EB
:1048F00000F008FA40F20113E060238010BD10B50B
:1049000083684360044600F0FDF940F20113E06063
:10491000238010BD10B504460846FFF72EFFA060A7
:1049200010BD10B50446084602F0B4FAA06010BDF0
:1049300010B5C3688360044600F0E4F940F2011347
:104940006060238010BD10B504460846FFF715FFD0
:10495000E06010BD10B5C3688360044600F0D2F972
:1049600040F201136060238010BD10B50446084674
:1049700002F090FAE06010BD10B501460446103018
:1049800002F0DEFA00F0BEF940F201132062A384C7
:1049900010BD102202F001BBF8B590F8A9500446F2
:1049A000002D64D090F8AA10FFF7D7FE94F8AB1052
:1049B00002462046FFF7D1FE94F8A83000EB021023
:1049C000C0B283424BD1D4F8D4300133C4F8D430D0
:1049D00094F8BC3023B1D4F8CC300133C4F8CC30D7
:1049E00094F8B93033B3012B15D104F13800FFF737
:1049F0007BFF04F14800FFF782FF94F8BC3053B10D
:104A00002046FFF70FFF04F15800FFF791FF04F174
:104A10006800FFF78DFFD4F8C46036B3D4F8C43013
:104A2000B06A996A02F082FAF8B93046FFF7A4FF3B
:104A3000366BF2E704F14800FFF761FF94F8BC30F1
:104A400033B12046FFF7EEFE04F17800FFF770FF68
:104A500004F18800FFF77EFF04F19800D9E7D4F84D
:104A6000D0300133C4F8D03000252846F8BD90F886
:104A7000BA2022BB00F1AA075649384602F056FA7E
:104A800018B9012384F8B93006E05349384602F0DA
:104A90004DFA90B984F8B950D4F8C030C4F8C43095
:104AA000D4F8C460002EE0D0B06A394602F03EFA75
:104AB000002880F28880336BF0E70223E2E790F869
:104AC000B910022923D090F8AA3003B342EA411268
:104AD000013A282A1BD8DFE802F0153B42494C6313
:104AE000686E721A1A1A1A1A1A1A1A1A1A1A1A1A2C
:104AF0001A1A1A1A1A1A1A1A1A1A15343B42494C57
:104B000053595D0000F1AA014830FFF703FFD4F8C4
:104B1000C46004F1AA07002EA7D0D4F8C430B06A4C
:104B2000996A02F003FA00289FD1F26A94F8BA3029
:104B30009A429ADC03D139463046FFF72AFF366B9A
:104B4000E9E7A3F141004342434184F8BC30DEE78A
:104B500000F11C0104F1AA00FFF734FED7E7A3F12E
:104B600053014B424B4180F82430D0E700F128013B
:104B7000F0E7A3F157025342534180F83030C6E7C3
:104B800000F1AA015830FFF7DEFEC0E700F1AA01EC
:104B90006830F8E700F1AA013830FFF7C2FEB6E747
:104BA000302B94BF00230123CFE700F1AA01883006
:104BB000FFF7DBFEABE700F1AA019830E3E700F175
:104BC000AA017830DFE73FF450AF0023C4F8C430C7
:104BD0004BE700BF0F720D0015720D0038B5D0F80D
:104BE000C830242903F1010304460D46C0F8C8303B
:104BF0003AD090F8BB3014D80A291CD00D291AD00D
:104C00000D2B9FBF5A1C1B1984F8BB2083F8AA5098
:104C100094F8A90098BB94F8A8104D4084F8A850C7
:104C200021E02A2907D02C29EAD190F8A82082F087
:104C30002C0280F8A8200E2B4FF0000005D823444A
:104C400083F8AA002046FFF7A7FE94F8BA30013394
:104C500084F8BA30002384F8BB30A5F12A035D4202
:104C60005D4184F8A95038BD00200223A4F8A800B3
:104C700084F8B930A4F8BA0084F8BC00F3E7002047
:104C8000F1E7000008B5024B1B689B68019308BD63
:104C90006802030008B5024B1B68DB68019308BD7E
:104CA0006802030008B5024B1B689B68019308BDAE
:104CB0002C02030008B5024B1B68DB68019308BD9A
:104CC0002C02030008B5024B1B681B69019308BD49
:104CD0002C02030008B5024B1B68DB6C019308BD76
:104CE0002C02030008B5024B1B685B68019308BDEA
:104CF0001802030008B5024B1B68DB68019308BD6E
:104D00001802030008B5024B1B685B69019308BDDC
:104D10001802030008B5024B1B685B6C019308BDC9
:104D20004802030008B5024B1B689B6C019308BD49
:104D30004802030008B5024B1B685B69019308BD7C
:104D40006402030008B5024B1B681B68019308BD91
:104D50003C02030008B5024B1B68DB68019308BDE9
:104D60003C02030008B5024B1B681B69019308BD98
:104D70003C02030008B5024B1B685B69019308BD48
:104D80003C02030008B5024B1B689B69019308BDF8
:104D90003C02030008B5024B1B68DB69019308BDA8
:104DA0003C02030008B5024B1B681B6A019308BD57
:104DB0003C02030008B5024B1B689B6A019308BDC7
:104DC0003C02030008B5024B1B68DB6A019308BD77
:104DD0003C02030008B5024B1B68DB68019308BD69
:104DE0002802030008B5024B1B689B69019308BDAC
:104DF0002802030008B5024B1B68DB69019308BD5C
:104E00002802030008B5024B1B681B6A019308BD0A
:104E10002802030008B5024B1B685B6A019308BDBA
:104E20002802030008B5024B1B689B6A019308BD6A
:104E30002802030008B5024B1B68DB6A019308BD1A
:104E40002802030008B5024B1B681B6B019308BDC9
:104E50002802030008B5024B1B685B6B019308BD79
:104E60002802030008B5024B1B681B6C019308BDA8
:104E70002802030008B5024B1B681B6D019308BD97
:104E80002802030008B5024B1B68DB69019308BDCB
:104E90003002030008B5024B1B681B6A019308BD72
:104EA0003002030008B5024B1B681B68019308BD64
:104EB0004C02030008B5024B1B685B68019308BDF8
:104EC0004C02030008B5024B1B681B69019308BD27
:104ED0004C02030008B5024B1B685B69019308BDD7
:104EE0004C02030008B5024B1B689B69019308BD87
:104EF0004C02030008B5024B1B68DB69019308BD37
:104F00004C02030008B5024B1B681B6A019308BDE5
:104F10004C02030008B5024B1B685B68019308BD97
:104F20002002030008B5024B1B685B69019308BDB2
:104F30002002030008B5024B1B68DB6C019308BD1F
:104F40002002030008B5024B1B685B6D019308BD8E
:104F50002002030008B5034B1B68D3F88830019387
:104F600008BD00002002030008B5034B1B68D3F8FE
:104F70009430019308BD00002002030008B5024BE5
:104F80001B685B68019308BD4002030008B5024B33
:104F90001B689B68019308BD4002030008B5024BE3
:104FA0001B68DB68019308BD4002030008B5024B93
:104FB0001B681B69019308BD4002030008B5024B42
:104FC0001B685B69019308BD4002030008B5024BF2
:104FD0001B689B69019308BD4002030008B5024BA2
:104FE0001B68DB69019308BD4002030008B5024B52
:104FF0001B681B6A019308BD4002030008B5024B01
:105000001B681B6B019308BD4002030008B5024BEF
:105010001B685B6B019308BD4002030008B5024B9F
:105020001B681B6C019308BD4002030008B5024BCE
:105030001B685B6C019308BD4002030008B5024B7E
:105040001B685B69019308BD4402030008B5024B6D
:105050001B681B6A019308BD4402030008B5024B9C
:105060001B685B6A019308BD4402030008B5024B4C
:105070001B68DB6B019308BD4402030008B5024BBB
:105080001B681B68019308BD1C02030008B5024B96
:105090001B685B68019308BD1C02030008B5024B46
:1050A0001B689B68019308BD1C02030008B5024BF6
:1050B0001B685B6A019308BD1C02030008B5024B24
:1050C0001B68DB6A019308BD1C02030008B5024B94
:1050D0001B681B6B019308BD1C02030008B5024B43
:1050E0001B685B6C019308BD1C0203000022406832
:1050F0001146FFF77BBF002240681146FFF786BFCD
:1051000040680022FFF77ABF4068002281F0010169
:10511000FFF764BF002340681A461946FFF756BFE1
:10512000002340681A461946FFF748BF002240682E
:105130001146FFF73BBF002240681146FFF726BF2C
:10514000406800220221FFF729BF002340681A4669
:10515000FFF714BF024B03225A60024A1A607047DD
:105160001CE6032024720D0010B504460846217089
:10517000FFF788FE00236360204610BD10B504468B
:10518000006818B1FFF782FF0023236010BD10B53F
:105190000446FFF7F3FF204610BD000010B5094B91
:1051A000094C022200201A60084B2060A080A071E8
:1051B000A360FFF7AFFE2046054A0649BDE8104050
:1051C00001F058B930E6032024E603200000FFFF79
:1051D00004E503208F510D0010B504460068FFF769
:1051E00055FF204610BD10B50446006808B1FFF712
:1051F0004DFF0023C4E90133236010BD38B50446D8
:105200000D4600680131FFF749FF10B1C4E9000500
:10521000012038BD10B50368044623B143688B42B2
:1052200001D3012010BD2046FFF7E8FF0028F9D088
:10523000A368002BF5D122681370F2E737B50D464D
:10524000114601920446FFF7E5FF019A28B920466E
:10525000FFF7C9FF204603B030BDA2602946206891
:1052600001F02AFE2268A3680021D154F2E700234E
:1052700013B5C0E9003304468360037341B10846A7
:10528000019101F082FE019902462046FFF7D6FF08
:10529000204602B010BD00000EB470B587B00BAD53
:1052A000044655F8042B01922B46052104A80395CA
:1052B000FFF7FCFE0B4906462046FFF7D8FF3146B4
:1052C0002046FFF7A7FF206830B1019A03952B46CF
:1052D000711CFFF7EBFEA060204607B0BDE87040F0
:1052E00003B0704755710D0010B5036804469B6804
:1052F0009847A368013BA3602BB923682046DB686D
:10530000BDE81040184710BD10B50446006808B14C
:10531000FFF708FD204610BD10B58368044613B1A1
:10532000032201469847204610BD0B68036013B165
:105330005A6801325A60704710B50446006828B1B7
:105340004368013B43600BB9FFF7CEFF204610BD19
:1053500013B50B460246D0E900016C4684E8030011
:1053600093E8030082E8030094E8030083E8030065
:1053700002B010BD10B5064C002320462360FFF795
:10538000C9FC2046034A0449BDE8104001F072B848
:1053900034E6032004E5032009530D00F8B5064662
:1053A0000D468F180024BD420CD0336815F8011B40
:1053B0009B6830469847031E01DB1C44F3E7002C32
:1053C00008BF1C462046F8BD13B50446084659B12F
:1053D000019101F0DAFD23680199DB68024620465D
:1053E00002B0BDE81040184702B010BD08B5FFF785
:1053F000EBFF08BD03689B68184738B50D210546CB
:10540000FFF7F8FF0A2104462846FFF7F3FF204480
:1054100038BD38B50546FFF7D7FF04462846FFF7E5
:10542000ECFF204438BD30B58BB000238DF824301C
:10543000012A98BF0A2209AC0D46B1FBF2F101FB2B
:10544000125303F0FF03092B94BF30333733DBB221
:10545000AA4204F8013DEFD92146FFF7B5FF0BB092
:1054600030BD00002DE9F74F55EC104B06460F46B6
:1054700010EE102A10EE100A2B46294601F05CFCB3
:1054800040B153493046FFF79FFF8246504603B074
:10549000BDE8F08F25F000494E4B4FF0FF3220461B
:1054A000494601F049FC48B94A4B4FF0FF322046CB
:1054B000494601F023FC08B94749E3E7474B4FF061
:1054C00060422046294601F02DFC08B14449D9E745
:1054D000444B4FF060422046294601F005FC00286D
:1054E000F4D1002200232046294601F0FDFBD0B173
:1054F0002D213046FFF77EFF05F1004382461D4611
:105500003949DFF8EC904FF0000B00204FF0000815
:105510005FFA8BF39F4208D942464B4601F09CFA52
:105520000BF1010BF4E78246EAE722462B4600F036
:10553000B3FF0D46044601F03DFC804601F0E8F85B
:1055400002460B462046294600F0A4FF0A220446E4
:105550000D4630464146FFF766FF824427B1234996
:105560003046FFF731FF8244DFF884904FF00008A7
:10557000013FFFB2FF2F89D042464B4620462946C5
:1055800001F040F904460D4601F0ECFBB0F1000BD0
:105590001ADA2D213046FFF72DFFCBF1000103462B
:1055A0000A2230460193FFF73EFF019B18448244D4
:1055B000584601F0BDF802460B462046294600F049
:1055C00069FF04460D46D3E759460023E8E700BFCC
:1055D00058720D00FFFFEF7F5C720D00FFFFEF417F
:1055E00060720D00FFFFEFC10000E03F64720D002C
:1055F0000000244038B5044610EE100ACDB201F088
:10560000A9F841EC100B29462046BDE83840FFF7C9
:1056100029BF38B5C9B20546FFF724FF044628461E
:10562000FFF7EBFE204438BD38B5044610EE100AF3
:105630000D4601F08FF841EC100B29462046BDE8DD
:105640003840FFF7E6BF0000014B024A1A6070477E
:1056500038E6032066720D00024B1A68024B1A608E
:10566000704700BF9CE403203CE603200021FFF7C5
:1056700059BC10B50446FFF74FFE204610BD000090
:105680000348044A04490023836000F0F3BE00BFCE
:1056900040E6032004E5032073560D00014B18601B
:1056A000704700BFA0E4032008B50B4B43B100F0E6
:1056B000F7FB03681B699847002801DDAFF3008002
:1056C000064B43B100F0BEFC03681B6998470028F5
:1056D00001DDAFF3008008BD000000000000000005
:1056E00008B5FFF7E1FFFFF70DFB014B186008BDA0
:1056F000D4E703200248034A0349121A01F0DCBB35
:1057000000F4032004F40320E0740D0007B5002327
:1057100000931A466FF07701FFF726FC03B05DF89F
:1057200004FB000007B543880A2B08D0502B0BD18F
:10573000094B1B684BB103B05DF804EB1847FFF74A
:10574000E5FF03B05DF804FB002300931A466FF0F9
:105750007701FFF709FCF4E754E6032038B5124C53
:105760001248134D0021FFF7B9FC2368AB42114BDF
:105770000CBF012200221A7002D0FFF7BBFF256088
:10578000FFF7B0FA044601F0ADFB0B4B13B1204616
:10579000AFF3008000210848FFF768FCBDE83840FF
:1057A00006480021FFF7D6BB00F403209D560D00EC
:1057B0001E1C279A50E603200000000025570D000C
:1057C00070470020704710B51021044600F057FEC6
:1057D000204610BD08B5FFF7F6FF08BD30B5002222
:1057E0004FF69C74026084808D888C800C68858064
:1057F00004600A6030BD10B504460068FFF746FC3F
:10580000204610BD38B5C468F4B12378022B03D10B
:1058100004F10C00FFF7EFFF656835B12846FFF78C
:105820007BFD1021284600F02AFEA56835B12846E8
:10583000FFF772FD1021284600F021FE20461421BA
:10584000BDE8384000F01BBE38BD73B50E460446B7
:1058500056F8043B00930D4601A83146FFF765FD5D
:10586000019A009B6260236001A8002301930093CA
:10587000FFF762FD3046FFF75FFD2846082100F084
:10588000FEFD204602B070BD826810B50AB900F076
:10589000FAFDBDE81040C368184708B5006800F17C
:1058A0001001FFF7F1FF08BD826810B50AB900F0DA
:1058B000EAFDBDE81040C368184708B5006800F16C
:1058C0001001FFF7F1FF08BD38B50023044603605F
:1058D00010200D46FEF7DFFB28B10123C0E901339C
:1058E000024B0360C5602060204638BD90720D00F9
:1058F00038B5002383608B6804460D462BB1022225
:105900009847EB68E360AB68A360204638BD0000B1
:10591000F0B589B004686846FFF760FF4FF00203F6
:10592000D4E84F2F002A03D1C4E8413F0029F7D122
:1059300025D104F10C0569462846FFF74FFFBFF358
:105940005B8F01236370002004F10803BFF35B8FBA
:1059500053E8006F43E80002002AF9D1BFF35B8FE0
:105960006EB1FFF7E7FA78B129463046FFF78CFFB2
:105970003046FFF7D1FC1021304600F080FD68462C
:10598000FFF739FF09B0F0BD314602A8FFF7B0FFBD
:10599000E068B4F9105008B101F0DAFA069010206E
:1059A000ADF81C50FEF777FB0546E8B1002787608D
:1059B0001820FEF770FB044688B10146876002A8F4
:1059C000FFF7C6FC049BA268A360059B049206A98E
:1059D000E268E36004F110000592FFF7FFFE084B58
:1059E000EB60084B2C60AB6006A8FFF704FF02A831
:1059F000FFF792FC002229460348FFF7A3FAB7E716
:105A00009B580D00315B0D0099600D002DE9F047AA
:105A10008AB005469DF848900C4617469846FFF711
:105A20000DFB07AE824638BB4FF62E73059005A9D5
:105A30003046ADF81830FFF7D1FE1420FEF72BFBEF
:105A4000044648B1022303700123C0E901AA437050
:105A500031460C30FFF7C2FE2846214640F8044B81
:105A6000FFF732FF3046FFF7C6FE05A8FFF7C3FE7B
:105A700028460AB0BDE8F0870C234FF0000A142036
:105A8000CDE908AA0793FEF706FB014628B1C0E955
:105A900001AA80F800A080F801A004A80391FFF7F4
:105AA00013FF224B08930820FEF7F5FA824628B12F
:105AB000039B40F8043B04A9FFF737FC00965FFA0C
:105AC00089F3424639462046CDF824A0FFF7BEFAB6
:105AD000B8B9039B5B7803F0FF0293B94FF69C7350
:105AE00005A903A80592ADF81830FFF711FF05A826
:105AF000FFF781FE05A80999FFF7A7FE06A8FFF7A3
:105B00001BFC039B059304A906A8FFF70EFC059B4D
:105B1000069A2B606A60002306A806930593FFF798
:105B20000BFC04A8FFF708FCA2E700BFF55B0D0023
:105B3000022AF8B5054607D0032A18D0012A01D158
:105B40000B6803600020F8BD18200E68FEF7A3FA6A
:105B5000044650B13146FFF7CBFE3069B6F91470F8
:105B600008B101F0F5F92061A7822C60EAE704682A
:105B7000002CE7D004F11000FFF73DFE2046FFF7B0
:105B8000CBFB1821204600F07AFCDBE738B5002378
:105B900083608B6804460D462BB102229847EB6860
:105BA000E360AB68A360204638BD022A70B50446A6
:105BB00007D0032A12D0012A01D10B68036000200C
:105BC00070BD14200E68FEF766FA054620B1314616
:105BD000FFF7DCFF337C2B742560F0E70468002CB2
:105BE000EDD02046FFF798FB1421204600F047FC3B
:105BF000E5E70000F0B589B004460D4601A811465E
:105C0000FFF723FEA4B124B21DB1284601F0A0F98C
:105C1000054601A803A90395ADF81040FFF778FEEB
:105C200003A8FFF7E8FD02A8FFF786FB09B0F0BD67
:105C3000019D0123D5E84F2F002A03D1C5E8413F3C
:105C40000029F7D1EFD12B73BFF35B8F6B702B1D46
:105C5000BFF35B8F53E8006F43E80042002AF9D19D
:105C6000BFF35B8F002EDED02046FFF763F90746B7
:105C700060B105F10C013046FFF716FE3046FFF724
:105C80004BFB1021304600F0FAFBCCE7314603A86D
:105C9000FFF77CFF2B7B8DF81C301020FEF7FBF903
:105CA0000546D0B187601420FEF7F5F9044678B1B7
:105CB0008760014603A8FFF74BFB059BA268A36022
:105CC000069B0592E268E3609DF81C3006922374FF
:105CD000064BEB60064B2C60AB6003A8FFF71CFB88
:105CE000002229460348FFF72DF9C7E7BB580D00EE
:105CF000AB5B0D0099600D00704710B5182104468C
:105D000000F0BDFB204610BDF0B5037D062B8DB025
:105D10000E4600F104074FF0000412D000F1080510
:105D200015F8011D0A223046FFF77DFBAF420444FF
:105D300019D0002CF4D02E213046FFF75BFB044431
:105D4000EEE72F236A4639460A208DF80040FEF719
:105D5000F1FF684601F019F933680246DB686946CD
:105D600030469847044620460DB0F0BD10B5054BAF
:105D70000446112240F8043B002101F0ABF8204614
:105D800010BD00BFAC720D000346074A10B543F8C2
:105D9000042B01F1100251F8044B43F8044B9142DB
:105DA000F9D10A781A7010BDAC720D0010B59DF8CB
:105DB000084044EA032343EA024242EA0161042321
:105DC0004160037510BD000013B5054B0360CB782F
:105DD00000938B784A780978FFF7E8FF02B010BD8E
:105DE000AC720D0041747047704708B50021007C0B
:105DF000FFF778F840EAE07008BD08B50121007CA3
:105E0000FFF770F840EAE07008BD08B5007CFFF7C6
:105E100061F820EAE07008BD08B5007CFFF752F891
:105E200020EAE07008BD13B50446007C0191FFF73D
:105E300051F80028019901DC607C20B1207CFFF73B
:105E400059F820EAE07002B010BD007CFFF75AB8A4
:105E500010B51421044600F012FB204610BD0000CE
:105E600010B54FF47A73044608460021C4E90113C3
:105E7000044B23600123207463741146FFF712F86A
:105E8000204610BDC0720D00007C0022FFF712B842
:105E900010B514220446002101F01CF8204610BD64
:105EA00010B5104C88B003A8FFF7F2FF2178BFF3BC
:105EB0005B8F11F0010111D120460191FEF7F1F83D
:105EC000019958B103AA0848FFF7CAFF2046FEF718
:105ED000EDF8064A0649044800F0CCFA024808B03A
:105EE00010BD00BF58E603205CE6032004E5032054
:105EF000E95D0D00002240681146FFF757B8002207
:105F000040681146FFF772B8002240681146FFF75B
:105F10007DB840680022FFF771B84068002281F028
:105F20000101FFF75BB8002340681A461946FFF7E6
:105F30004DB8002340681A461946FFF73FB80022C3
:105F400040681146FFF722B8406800220221FFF79F
:105F500025B8002340681A46FFF710B8084B10B563
:105F6000282422461846002100F0B4FF054B048087
:105F70004FF0FF32426004225A60034A1A6010BD9B
:105F800078E6032070E60320F0720D00704741743C
:105F9000704708B5007CFEF70DFF20EAE07008BDF1
:105FA00008B5007CFEF7DEFE20EAE07008BD08B50B
:105FB000007CFEF7E7FE40EAE07008BD08B5007C13
:105FC000FEF7D8FE40EAE07008BD007CFEF7E2BEB6
:105FD00037B5457C04462DB1207C03B0BDE8304088
:105FE000FEF7B8BE007C0191FEF7E4FE002801999F
:105FF000F2DC284603B030BD10B51421044600F091
:106000003EFA204610BD000010B54FF0000C0446CB
:10601000084611464FF47A72C4E901C2044A22606C
:106020000122207462741A46FEF78CFE204610BDD1
:106030002C730D00007C0023FEF7C4BE0022FFF786
:10604000F9BF000013B50E4C2178BFF35B8F11F040
:10605000010112D120460191FEF723F8019960B1A8
:10606000084A094B0948FFF7CFFF2046FEF71EF804
:10607000074A0849054800F0FDF9044802B010BD80
:10608000A0E60320A4E6032028E70320ACE70320D2
:1060900004E503208D5F0D0010B5836804460BB93D
:1060A00000F0F1F9C3689847A3681BB103222146A9
:1060B0002046984720461021BDE8104000F0DFB987
:1060C0007047F8B5064615460C468F18BC4206D0F8
:1060D000336814F8011B9B6830469847F6E728465A
:1060E000F8BD007C0022FEF78DBE007C0021FEF78B
:1060F00091BE007C0021FEF795BE007C0021FEF7DA
:1061000099BE007C0021FEF79DBE10B51421044607
:1061100000F0B5F9204610BD10B54FF47A7304466F
:1061200008460021C4E90113034B23602074114683
:10613000FEF798FE204610BD5C730D000023007C26
:106140001A461946FEF746BE7FB500221423CDE954
:106150000122ADF804300B788DF808304B680393BA
:10616000CB680493007C0B7A059301A9FEF782FEAD
:1061700007B05DF804FB1FB5003B8DF800104FF031
:106180006401039118BF0123694601928DF808301C
:10619000FFF7DAFF05B05DF804FB0123FFF7EBBF63
:1061A000007C0022FEF71EBE007C0022FEF722BE0D
:1061B0000121FFF7F9BF002340681A46FEF7DEBE53
:1061C000406800220221FEF7E9BE00224068114625
:1061D000FEF7DCBE002240681146FEF7E7BE002352
:1061E00040681A461946FEF7E9BE002340681A4681
:1061F0001946FEF7EBBE40680021FEF70FBF40686E
:106200000021FEF713BF4068002281F00101FEF774
:10621000E5BE40680022FEF7F1BE0022406811464C
:10622000FEF7F4BE002240681146FEF7DFBE2DE9FE
:10623000F043002495B016460D460746FFF796FD3D
:10624000214618220EA8009400F044FE4023CDE918
:106250000C3421466B460CAA3046FEF71BFD044663
:1062600000284CD1024601216868FEF79FFE0221FA
:10627000804622466868FEF799FE009E81462146C8
:10628000002E3CD000293AD17368022B03D00A2B90
:1062900011D0F669F4E7B8F1000F0AD0716906A8C9
:1062A000043107ADFFF790FD0FCD3C1D0FC42B68E7
:1062B00023704146EDE7B9F1000F01D14946E8E707
:1062C0007469102201A800F005FE06238DF8143031
:1062D00001AD04F108031834186859682A4603C24E
:1062E0000833A3421546F7D101A906A807ADFFF769
:1062F0004BFD0FCD3C1D0FC42B682370DEE70098CB
:10630000FEF7C0FC384615B0BDE8F083024B034AE7
:106310001A6000225A607047C0E7032084730D00A2
:10632000232813B502D9002002B010BDA0F10B0341
:10633000022B1AD8174C2178BFF35B8F11F00101A3
:106340000BD120460191FDF7ACFE019928B112480E
:10635000FEF70AFF2046FDF7A9FE0F4B1878FEF75F
:1063600099FD0028DFD10120DEE7012809D800F0DF
:1063700059F80021007CFEF76DFD80F00100C0B2ED
:10638000D2E709380128EED8FFF75CFE007CFEF763
:1063900009FDF2E7C8E70320CCE70320232838B53E
:1063A00004460D460AD8FF2908D0FFF7B9FF28B1E7
:1063B00029462046BDE83840FEF774BC38BD38B5E4
:1063C00004460D46FEF776FCFF2810D0062804D8B8
:1063D0004D2323FA00F0C30709D42046FFF7A0FF9E
:1063E00028B129462046BDE83840FEF76BBC38BDD1
:1063F000FEF770BC38B500232025438014230446E3
:106400000380856005610649284600F03AF8044992
:106410006060284600F035F8E060204638BD00BFD7
:10642000B8730D0030B50F4D2978BFF35B8F11F0B5
:10643000010487B013D12846FDF733FE78B101A8D7
:10644000FFF7D8FF01AA21460748FFF765FE284657
:10645000FDF72CFE054A0649034800F00BF80248F8
:1064600007B030BDD8E70320DCE7032004E50320B4
:10647000C1600D000B460146184600F00FBDFDF748
:106480000EBEFDF70ABE08B5FEF718FE81F000410A
:1064900002E000BF83F0004330B54FEA41044FEA09
:1064A000430594EA050F08BF90EA020F1FBF54EAA4
:1064B000000C55EA020C7FEA645C7FEA655C00F040
:1064C000E2804FEA5454D4EB5555B8BF6D420CDD11
:1064D0002C4480EA020281EA030382EA000083EA94
:1064E000010180EA020281EA0303362D88BF30BD34
:1064F00011F0004F4FEA01314FF4801C4CEA11318A
:1065000002D0404261EB410113F0004F4FEA0333E8
:106510004CEA133302D0524263EB430394EA050F73
:1065200000F0A780A4F10104D5F1200E0DDB02FAE2
:106530000EFC22FA05F2801841F1000103FA0EF276
:10654000801843FA05F359410EE0A5F120050EF13C
:10655000200E012A03FA0EFC28BF4CF0020C43FA6D
:1065600005F3C01851EBE37101F0004507D54FF07A
:10657000000EDCF1000C7EEB00006EEB0101B1F5CA
:10658000801F1BD3B1F5001F0CD349085FEA300010
:106590004FEA3C0C04F101044FEA445212F5800F1B
:1065A00080F09A80BCF1004F08BF5FEA500C50F1B8
:1065B000000041EB045141EA050130BD5FEA4C0C9B
:1065C000404141EB0101013C28BFB1F5801FE9D2F8
:1065D00091F0000F04BF01460020B1FA81F308BF1B
:1065E0002033A3F10B03B3F120020CDA0C3208DDE7
:1065F00002F1140CC2F10C0201FA0CF021FA02F1C2
:106600000CE002F11402D8BFC2F1200C01FA02F131
:1066100020FA0CFCDCBF41EA0C019040E41AA2BF56
:1066200001EB0451294330BD6FEA04041F3C1CDA1E
:106630000C340EDC04F11404C4F1200220FA04F03E
:1066400001FA02F340EA030021FA04F345EA0301E8
:1066500030BDC4F10C04C4F1200220FA02F001FAAA
:1066600004F340EA0300294630BD21FA04F029462C
:1066700030BD94F0000F83F4801306BF81F48011C5
:106680000134013D4EE77FEA645C18BF7FEA655C38
:1066900029D094EA050F08BF90EA020F05D054EA0A
:1066A000000C04BF1946104630BD91EA030F1EBF0F
:1066B0000021002030BD5FEA545C05D14000494113
:1066C00028BF41F0004130BD14F580043CBF01F506
:1066D000801130BD01F0004545F0FE4141F47001EC
:1066E0004FF0000030BD7FEA645C1ABF19461046C7
:1066F0007FEA655C1CBF0B46024650EA013406BFC8
:1067000052EA033591EA030F41F4002130BD00BF86
:1067100090F0000F04BF0021704730B54FF4806443
:1067200004F132044FF000054FF0000150E700BFC4
:1067300090F0000F04BF0021704730B54FF4806423
:1067400004F1320410F0004548BF40424FF0000110
:106750003EE700BF42004FEAE2014FEA31014FEA53
:1067600002701FBF12F07F4393F07F4F81F06051A2
:10677000704732F07F4208BF704793F07F4F04BFED
:1067800041F40021704730B54FF4607401F00045CA
:1067900021F000411CE700BF50EA010208BF70472A
:1067A00030B54FF000050AE050EA010208BF70471B
:1067B00030B511F0004502D5404261EB41014FF484
:1067C000806404F132045FEA915C3FF4D8AE4FF08C
:1067D00003025FEADC0C18BF03325FEADC0C18BF6F
:1067E000033202EBDC02C2F1200300FA03FC20FAC0
:1067F00002F001FA03FE40EA0E0021FA02F114440D
:10680000BDE600BF70B54FF0FF0C4CF4E06C1CEA25
:1068100011541DBF1CEA135594EA0C0F95EA0C0F96
:1068200000F0DEF82C4481EA030621EA4C5123EA09
:106830004C5350EA013518BF52EA033541F4801138
:1068400043F4801338D0A0FB02CE4FF00005E1FBEB
:1068500002E506F00042E0FB03E54FF00006E1FB35
:1068600003569CF0000F18BF4EF0010EA4F1FF0478
:10687000B6F5007F64F5407404D25FEA4E0E6D41B8
:1068800046EB060642EAC62141EA55514FEAC520C9
:1068900040EA5E504FEACE2EB4F1FD0C88BFBCF545
:1068A000E06F1ED8BEF1004F08BF5FEA500E50F1F6
:1068B000000041EB045170BD06F0004646EA0101BC
:1068C00040EA020081EA0301B4EB5C04C2BFD4EBEE
:1068D0000C0541EA045170BD41F480114FF0000EE7
:1068E000013C00F3AB8014F1360FDEBF002001F055
:1068F000004170BDC4F10004203C35DA0C341BDCCF
:1069000004F11404C4F1200500FA05F320FA04F0A0
:1069100001FA05F240EA020001F0004221F00041D4
:1069200010EBD37021FA04F642EB06015EEA430E47
:1069300008BF20EAD37070BDC4F10C04C4F1200577
:1069400000FA04F320FA05F001FA04F240EA02002A
:1069500001F0004110EBD37041F100015EEA430EFB
:1069600008BF20EAD37070BDC4F1200500FA05F21B
:106970004EEA020E20FA04F301FA05F243EA02039A
:1069800021FA04F001F0004121FA04F220EA0200A9
:1069900000EBD3705EEA430E08BF20EAD37070BDEF
:1069A00094F0000F0FD101F00046400041EB0101CF
:1069B00011F4801F08BF013CF7D041EA060195F0B1
:1069C000000F18BF704703F00046520043EB03036B
:1069D00013F4801F08BF013DF7D043EA0603704758
:1069E00094EA0C0F0CEA135518BF95EA0C0F0CD063
:1069F00050EA410618BF52EA4306D1D181EA0301A9
:106A000001F000414FF0000070BD50EA410606BFA2
:106A10001046194652EA430619D094EA0C0F02D1E7
:106A200050EA013613D195EA0C0F05D152EA03362C
:106A30001CBF104619460AD181EA030101F000414A
:106A400041F0FE4141F470014FF0000070BD41F093
:106A5000FE4141F4780170BD70B54FF0FF0C4CF46D
:106A6000E06C1CEA11541DBF1CEA135594EA0C0F8C
:106A700095EA0C0F00F0A7F8A4EB050481EA030ED9
:106A800052EA03354FEA013100F088804FEA0333C0
:106A90004FF0805545EA131343EA12634FEA02228E
:106AA00045EA111545EA10654FEA00260EF000414F
:106AB0009D4208BF964244F1FD0404F5407402D2A1
:106AC0005B084FEA3202B61A65EB03055B084FEA32
:106AD00032024FF480104FF4002CB6EB020E75EB2F
:106AE000030E22BFB61A754640EA0C005B084FEA57
:106AF0003202B6EB020E75EB030E22BFB61A7546D4
:106B000040EA5C005B084FEA3202B6EB020E75EB1E
:106B1000030E22BFB61A754640EA9C005B084FEA96
:106B20003202B6EB020E75EB030E22BFB61A7546A3
:106B300040EADC0055EA060E18D04FEA051545EA92
:106B400016754FEA06164FEAC30343EA52734FEA3B
:106B5000C2025FEA1C1CC0D111F4801F0BD141EAB4
:106B600000014FF000004FF0004CB6E711F4801F19
:106B700004BF01430020B4F1FD0C88BFBCF5E06FF9
:106B80003FF6AFAEB5EB030C04BFB6EB020C5FEA09
:106B9000500C50F1000041EB045170BD0EF0004E5E
:106BA0004EEA113114EB5C04C2BFD4EB0C0541EA90
:106BB000045170BD41F480114FF0000E013C90E68D
:106BC00045EA060E8DE60CEA135594EA0C0F08BF51
:106BD00095EA0C0F3FF43BAF94EA0C0F0AD150EA50
:106BE00001347FF434AF95EA0C0F7FF425AF1046E3
:106BF00019462CE795EA0C0F06D152EA03353FF40B
:106C0000FDAE1046194622E750EA410618BF52EA87
:106C100043067FF4C5AE50EA41047FF40DAF52EA5B
:106C200043057FF4EBAE12E74FF0FF3C06E000BFF8
:106C30004FF0010C02E000BF4FF0010C4DF804CD05
:106C40004FEA410C7FEA6C5C4FEA430C18BF7FEAC5
:106C50006C5C1BD001B050EA410C0CBF52EA430CF3
:106C600091EA030F02BF90EA020F0020704710F173
:106C7000000F91EA030F58BF994208BF90422CBF02
:106C8000D8176FEAE37040F0010070474FEA410CFB
:106C90007FEA6C5C02D150EA013C07D14FEA430C19
:106CA0007FEA6C5CD6D152EA033CD3D05DF8040B8A
:106CB000704700BF8446104662468C4619466346BC
:106CC00000E000BF01B5FFF7B7FF002848BF10F193
:106CD000000F01BD4DF808EDFFF7F4FF0CBF0120D8
:106CE00000205DF808FB00BF4DF808EDFFF7EAFF54
:106CF00034BF012000205DF808FB00BF4DF808ED0F
:106D0000FFF7E0FF94BF012000205DF808FB00BF03
:106D10004DF808EDFFF7CEFF94BF012000205DF88D
:106D200008FB00BF4DF808EDFFF7C4FF34BF01209A
:106D300000205DF808FB00BF4FEA410C7FEA6C5C65
:106D400002D150EA013C0AD14FEA430C7FEA6C5C65
:106D500002D152EA033C02D14FF0000070474FF0DD
:106D6000010070474FEA410212F5001215D211D509
:106D70006FF47873B3EB625212D94FEAC12343F038
:106D8000004343EA505311F0004F23FA02F018BFBA
:106D9000404270474FF00000704750EA013005D183
:106DA00011F0004008BF6FF0004070474FF0000046
:106DB000704700BF4A0011D212F5001211D20DD552
:106DC0006FF47873B3EB62520ED44FEAC12343F0F1
:106DD000004343EA505323FA02F070474FF000009B
:106DE000704750EA013002D14FF0FF3070474FF04A
:106DF000000070474FEA4102B2F1E04324BFB3F50F
:106E0000001CDCF1FE5C0DD901F0004C4FEAC00221
:106E10004CEA5070B2F1004F40EB830008BF20F005
:106E20000100704711F0804F21D113F13872BCBFBF
:106E300001F00040704741F480114FEA5252C2F114
:106E40001802C2F1200C10FA0CF320FA02F018BF5D
:106E500040F001004FEAC1234FEAD32303FA0CFCB0
:106E600040EA0C0023FA02F34FEA4303CCE77FEA3F
:106E7000625307D150EA01331EBF4FF0FE4040F489
:106E80004000704701F0004040F0FE4040F4000038
:106E9000704700BF0A22002100F00CB910B5054C64
:106EA00013462CB10A4601460220AFF3008010BD04
:106EB0002046FCE7000000000A44914200F1FF3345
:106EC00000D1704710B511F8014B03F8014F914202
:106ED000F9D110BD02440346934200D1704703F834
:106EE000011BF9E738B50D4B1D68AB6B04467BB948
:106EF0001820FEF7C3F80A4A0A4BA863C0E900232A
:106F0000094B83600B23838101220023C0E9042302
:106F1000AB6B00221C615A6138BD00BFA0E40320A6
:106F20000E33CDAB34126DE6ECDE050010F8012B0C
:106F300011F8013B012A28BF9A42F7D0D01A7047B6
:106F4000034611F8012B03F8012B002AF9D17047F1
:106F5000024B0146186800F003B800BFA0E403200C
:106F600037B5044608460D4600F00FF8421C11469E
:106F700020460192FEF7AAF8044618B1019A294664
:106F8000FFF79AFF204603B030BD034613F8012BEC
:106F9000002AFBD1181A0138704710B50139034691
:106FA00032B111F8014F03F8014B013A002CF7D12F
:106FB0001A440021934200D110BD03F8011BF9E7E8
:106FC0002DE9F0473A4E86468C4660461CF8014B48
:106FD000A55D15F00805F8D12D2C33D19CF80040A3
:106FE0004FF0010800F1020C002B5CD0102B0CD1EB
:106FF000302C0AD19CF8000000F0DF0058284DD159
:107000009CF8014010230CF1020C08F10047013FED
:107010000026B7FBF3F9304603FB197AA4F13005DB
:10702000092D18D82C46A34224DD751C07D08145B4
:107030001DD301D1A2451ADB00FB034001261CF839
:10704000014BEBE72B2C08BF9CF80040A84608BF7B
:1070500000F1020CC8E7A4F14105192D01D8373C15
:10706000E1E7A4F16105192D04D8573CDBE74FF0A7
:10707000FF36E4E7731C06D12223CEF800303846F1
:1070800042B9BDE8F087B8F1000F00D04042002AB5
:10709000F7D00EB10CF1FF311160F2E73024002B74
:1070A000B3D10823B1E7302CA4D00A23ADE700BF49
:1070B000BA730D0013460A46014602480068FFF7FE
:1070C0007FBF00BFA0E4032021400D005D400D0004
:1070D00085400D0089400D00000000004D65737370
:1070E0006167652061727269766564205B00686F14
:1070F0006F6B2D726573706F6E73652F7570646141
:107100007465005D20007061796C6F6164206F624E
:107110007461696E65642066726F6D207365727646
:1071200065723A00456E7465726564206770735FBE
:10713000666565645F636865636B2829004C6174EC
:1071400069747564653A20002C204C6F6E67697411
:107150007564653A20007B226C617469747564659E
:10716000223A25642C226C6F6E67697475646522FF
:107170003A25647D00696E697420737461746500DA
:1071800073656375726974792073746174650063E3
:107190006865636B5F6770732073746174650073F7
:1071A000656E645F7369676E616C2073746174658A
:1071B00000776865656C2073746F6C656E0062693A
:1071C0006B652073746F6C656E00736F756E645FB2
:1071D000616C61726D207374617465007765652000
:1071E000776F6F20616C61726D20626F6F700077D6
:1071F0006865656C5F73746F6C656E207374617421
:107200006500576865656C2073746F6C656E004728
:1072100050524D43004750474741000000000000D6
:10722000000000004B510D0041510D0037510D0081
:107230002D510D0021510D0015510D00F7610D006C
:10724000FF610D0009510D0001510D00F7500D00B7
:10725000ED500D002F620D006E616E00696E6600CC
:107260006F7666002E006170700025592D256D2DFA
:1072700025645425483A254D3A2553257A006173F3
:107280006374696D650000000000000000000000EC
:10729000C1570D00C7570D0005580D00D5570D00FB
:1072A000C3570D000000000000000000095D0D0044
:1072B000F95C0D00FB5C0D00000000000000000008
:1072C000E95D0D00515E0D00275E0D009D530D0020
:1072D000195E0D00EB5D0D00FB5D0D004B5E0D00BA
:1072E0000B5E0D00E55D0D000000000000000000D9
:1072F000535F0D00495F0D003F5F0D00F55E0D000F
:10730000335F0D00275F0D00F7610D00FF610D0079
:107310001B5F0D00135F0D00095F0D00FF5E0D0088
:107320002F620D0000000000000000008D5F0D00C6
:10733000F95F0D00D15F0D009D530D00A15F0D00A1
:10734000BD5F0D00AF5F0D00CB5F0D008F5F0D00C7
:10735000935F0D000000000000000000C1600D0000
:107360000B610D00E3600D00C3600D00EB600D00CC
:10737000F3600D00FB600D0003610D0000000000D4
:1073800000000000B7610D00C1610D00CB610D0070
:10739000D5610D00DF610D00EB610D00F7610D009F
:1073A000FF610D0007620D0013620D001B620D00EE
:1073B00025620D002F620D000000202020202020DB
:1073C0002020202828282828202020202020202095
:1073D0002020202020202020202088101010101095
:1073E00010101010101010101010040404040404E5
:1073F00004040404101010101010104141414141C8
:10740000410101010101010101010101010101012C
:1074100001010101011010101010104242424242BD
:1074200042020202020202020202020202020202FC
:1074300002020202021010101020000000000000E2
:10744000000000000000000000000000000000003C
:10745000000000000000000000000000000000002C
:10746000000000000000000000000000000000001C
:10747000000000000000000000000000000000000C
:1074800000000000000000000000000000000000FC
:1074900000000000000000000000000000000000EC
:1074A00000000000000000000000000000000000DC
:1074B000000000000000000000000000D5460D00A4
:1074C00055510D009D510D0075530D0049560D008D
:1074D00059560D0081560D005D5F0D000D630D00C6
:0474E00000000000A8
:1074E4000400000001000000190000007E720D007D
:1074F400A4E40320000000000000000000000000DD
:107504000000000000000000000000000000000077
:107514000000000000000000000000000000000067
:107524000000000000000000000000000000000057
:107534000000000000000000000000000000000047
:107544000000000000000000000000000000000037
:047554000000000033
:10755800FFFFFFFF00000102030405060708090AF0
:107568000B0C0D0E0F101112131415161718191AEB
:087578001B1C1D1E1F20280032
:0475800078563412F3
:040000052003E4945C
:00000001FF
